:020000040000FA
:0400000012EF02F009
:040008001EEF02F0F5
:20002A004A0EF66E040EF76E000EF86E0900F550056E0900F550066E04E1056702D064EF16
:20004A0000F00900F550006E0900F550016E0900F550026E09000900F550E96E0900F55073
:20006A00EA6E090009000900F550036E0900F550046E09000900F6CF07F0F7CF08F0F8CF3A
:20008A0009F000C0F6FF01C0F7FF02C0F8FF035002E1045009E00900F550EE6EF5CF7EFFDA
:2000AA000306F6E20406F7D707C0F6FF08C0F7FF09C0F8FF050601E2060621EF00F0120037
:2000CA00E8CFE5FFD8CFE5FFE0CFE5FFF3CFE5FFF4CFE5FFE9CFE5FFEACFE5FFFACFE5FF2A
:2000EA00FBCFE5FFD9CFE5FFE1CFD9FF030EE56E020EE56EE8EC00F0020EE126020EE56E2F
:20010A00010EE56EE8EC00F0020EE126010EE56E000EE56EE8EC00F0020EE126010E67EC98
:20012A0001F0FF00E4CFD9FFE4CFFBFFE4CFFAFFE4CFEAFFE4CFE9FFE4CFF4FFE4CFF3FF5F
:20014A00E4CFE0FFE4CFD8FFE4CFE8FF100000C0E5FF01C0E5FF02C0E5FF006A060E005C06
:20016A002BE2F10E8914016E0C0E0110896E010E5BEC01F0C00E0024016E026A000E0222F5
:20018A0001C0E9FF02C0EAFFEFCF01F001C08AFF01A602D0898C01D0899C010E5BEC01F03D
:2001AA00F10E8914016E005000240110896E010E5BEC01F0002AD2D7E4CF02F0E4CF01F04B
:2001CA00E4CF00F01200D9CFE5FFE1CFD9FF00C0E5FF01C0E5FF02C0E5FF03C0E5FF020EA6
:2001EA00DBCF00F0030EDBCF01F00150005C1AE200C0A9FFC00EA924026E036A000E0322F3
:20020A0002C0E9FF03C0EAFFEFCFA8FFA69EA69CA684550EA76EAA0EA76EA682A6B2FED7CF
:20022A00002AE3D7E4CF03F0E4CF02F0E4CF01F0E4CF00F0E4CFD9FF120000C0E5FF01C03C
:20024A00E5FF02C0E5FF03C0E5FF006A060E005C17E2C00E0024016E026A000E022201C0D0
:20026A00E9FF02C0EAFFEFCF03F0032A01C0E9FF02C0EAFF03C0EFFF035002E1002AE6D7E1
:20028A00030E005C08E3060EE56E000EE56AE8EC00F0020EE126ACEC00F0E4CF03F0E4CF7C
:2002AA0002F0E4CF01F0E4CF00F01200E8060000E85007E000D000D000D000D00000E82E86
:2002CA00FAD71200E806E56E090E80EC01F0630E5BEC01F0E4500EE000D0E56E090E80EC0B
:2002EA0001F0630E5BEC01F000D000D00000E450E82EF3D71200E806E56E630E5BEC01F0AA
:20030A00E4500BE000D0E56E630E5BEC01F000D000D00000E450E82EF6D71200E8CFE5FF84
:20032A00D8CFE5FFE0CFE5FFF3CFE5FFF4CFE5FFE9CFE5FFEACFE5FFFACFE5FFFBCFE5FFB4
:20034A0022EC01F0C282C2B2FED7C4CFBEFFC4500001C61BF294E4CFFBFFE4CFFAFFE4CF2F
:20036A00EAFFE4CFE9FFE4CFF4FFE4CFF3FFE4CFE0FFE4CFD8FFE4CFE8FF1000926A936AE5
:20038A00E5EC01F0A08EF28C9280010EC26E7E0EC16E060EC06E0C0EBD6ECB68040ECA6ED5
:2003AA00100EBE6EF294F28AF28EC20ED56E03EC02F0006E010E00160050CC5EF8D7120085
:2003CA0000C0E5FF01C0E5FFA96A060EA95C11E2A69EA69CA680C00EA924006E016A000E7D
:2003EA00012200C0E9FF01C0EAFFA8CFEFFFA92AECD7E4CF01F0E4CF00F01200D9CFE5FF9E
:20040A00E1CFD9FF0001D890C631D8B0B40AC66F0001C651E4CFD9FF120010EEBFF020EEFF
:20042A00BFF0F86AA68EA69C15EC00F0C3EC01F0FFD7F2B493EF01F0A1BE65EF00F01000F8
:10044A00010058040000C60000000200000001007C
:020000040030CA
:0E000000FFF7FEFEFFFFFAFFFFFFFFFFFFFF0F
:0200000400F00A
:200000000000000000000000000000000000000000000000000000000000000000000000E0
:200020000000000000000000000000000000000000000000000000000000000000000000C0
:200040000000000000000000000000000000000000000000000000000000000000000000A0
:20006000000000000000000000000000000000000000000000000000000000000000000080
:20008000000000000000000000000000000000000000000000000000000000000000000060
:2000A000000000000000000000000000000000000000000000000000000000000000000040
:2000C000000000000000000000000000000000000000000000000000000000000000000020
:2000E000000000000000000000000000000000000000000000000000000000000000000000
:0400000500000000F7
:00000001FF
